:020000041FFFDC
:1000000000000000D13EFF1F304DFF1F344DFF1F89
:10001000084EFF1F0000000000000000000000006C
:1000200000000000000000000000000000000000D0
:1000300000000000000000000000000000000000C0
:1000400000000000000000000000000000000000B0
:1000500000000000000000000000000000000000A0
:100060000000000000000000000000000000000090
:100070000000000000000000000000000000000080
:100080000000000000000000000000000000000070
:100090000000000000000000000000000000000060
:1000A0000000000000000000000000000000000050
:1000B0000000000000000000000000000000000040
:1000C0000000000000000000000000000000000030
:1000D0000000000000000000000000000000000020
:1000E0000000000000000000000000000000000010
:1000F0000000000000000000000000000000000000
:1001000000000000000000000000000000000000EF
:1001100000000000000000000000000000000000DF
:1001200000000000000000000000000000000000CF
:1001300000000000000000000000000000000000BF
:1001400000000000000000000000000000000000AF
:10015000000000000000000000000000000000009F
:10016000000000000000000000000000000000008F
:10017000000000000000000000000000000000007F
:10018000000000000000000000000000000000006F
:100190008537FF1FB537FF1FC146FF1F0000000056
:1001A000000000000000000000000000000000004F
:1001B000000000000000000000000000000000003F
:1001C000000000000000000000000000000000002F
:1001D000000000000000000000000000000000001F
:1001E000000000000000000000000000000000000F
:1001F00000000000000000000000000000000000FF
:1002000000000000000000000000000000000000EE
:1002100000000000000000000000000000000000DE
:1002200000000000000000000000000000000000CE
:1002300000000000000000000000000000000000BE
:1002400000000000000000000000000000000000AE
:10025000000000000000000000000000000000009E
:10026000000000000000000000000000000000008E
:10027000000000000000000000000000000000007E
:10028000000000000000000000000000000000006E
:10029000000000000000000000000000000000005E
:1002A000000000000000000000000000000000004E
:1002B000000000000000000000000000000000003E
:1002C000000000000000000000000000000000002E
:1002D000000000000000000000000000000000001E
:1002E000000000000000000000000000000000000E
:1002F00000000000000000000000000000000000FE
:1003000000000000000000000000000000000000ED
:1003100000000000000000000000000000000000DD
:1003200000000000000000000000000000000000CD
:1003300000000000000000000000000000000000BD
:1003400000000000000000000000000000000000AD
:10035000000000000000000000000000000000009D
:10036000000000000000000000000000000000008D
:100370003139FF1F000000000000000000000000F5
:10038000000000000000000000000000000000006D
:10039000000000000000000000000000000000005D
:1003A000000000000000000000000000000000004D
:1003B000000000000000000000000000000000003D
:1003C000000000000000000000000000000000002D
:1003D000000000000000000000000000000000001D
:1003E000000000000000000000000000000000000D
:1003F00000000000000000000000000000000000FD
:0C04000001FF01FF01FF01FF910000005F
:020000041FFFDC
:10183800B05AFF1F5518FF1F0348854600F010F8DF
:1018480000480047813EFF1FB05AFF1F02488047EB
:1018580002480047FEE70000292AFF1F4118FF1F22
:10186800064C0125064E05E0E36807CC2B430C3CEB
:1018780098471034B442F7D3FFF7E2FFD44DFF1F67
:10188800044EFF1F30B58C180278401C13071B0F3D
:1018980001D10378401C120906D10278401C03E0EC
:1018A80005780D70401C491C5B1EF9D101E00B70D6
:1018B800491C521EFBD1A142E6D3002030BD0000D6
:1018C80003B40148019001BDD94F010003B4014898
:1018D800019001BD75A9000003B40148019001BD44
:1018E800F9A6000003B40148019001BDA1AF0000B2
:1018F80003B40148019001BD9DA9000003B401484B
:10190800019001BDADAE000003B40148019001BDD6
:10191800456B010003B40148019001BD0189000035
:1019280003B40148019001BDC53F000003B401485C
:10193800019001BDE94C010003B40148019001BDCB
:10194800C95C010003B40148019001BDDD3F0000FE
:1019580003B40148019001BD8944000003B4014863
:10196800019001BD2144000003B40148019001BD6C
:10197800750F000003B40148019001BD190701006B
:1019880003B40148019001BDBD0B010003B4014837
:10199800019001BDDD0C010003B40148019001BDB7
:1019A800DD0A010003B40148019001BD01340100C2
:1019B80003B40148019001BD0934010003B4014892
:1019C800019001BD0534010003B40148019001BD37
:1019D800F535010003B40148019001BDF935010056
:1019E80003B40148019001BDE917010003B401489F
:1019F800019001BD6137010003B40148019001BDA8
:101A080001D7000003B40148019001BD6DF6000044
:101A180003B40148019001BD7912010003B40148E3
:101A2800019001BD4DF9000003B40148019001BDCA
:101A3800C1F7000003B40148019001BD116E000018
:101A480003B40148019001BD8D82000003B4014830
:101A5800019001BD8B52010003B40148019001BD02
:101A68006D0E010003B40148019001BDE90E0100AB
:101A780003B40148019001BD0D52010003B40148AF
:101A8800019001BDE1AC000003B40148019001BD23
:101A9800496D010003B40148019001BD3D71010089
:101AA80003B40148019001BDED4A010003B40148A7
:101AB800019001BDA54F010003B40148019001BD8B
:101AC8008552010003B40148019001BD156B010066
:101AD80003B40148019001BD016C010003B4014841
:101AE800019001BDBD5C010003B40148019001BD36
:101AF800D1AE000003B40148019001BDCD4C0100F6
:101B080003B40148019001BDB30E000003B40148BD
:101B1800019001BD810E000003B40148019001BD90
:101B280021A9000003B40148019001BDB54C010092
:101B380003B40148019001BDC56D010003B401481B
:101B4800019001BD51B8000003B40148019001BDE6
:101B580085C1000003B40148019001BDE9D400002B
:101B680003B40148019001BDE90B010003B4014829
:101B7800019001BD090E000003B40148019001BDA8
:101B88006D0B010003B40148019001BDC1150100AE
:101B980003B40148019001BDCD0C010003B4014814
:101BA800019001BD71B0000003B40148019001BD6E
:101BB800D9B0000003B40148019001BD5976010075
:101BC80003B40148019001BD53B9000003B40148B2
:101BD800019001BDED6B010003B40148019001BD06
:101BE800C9A9000003B40148019001BDEDA500009A
:101BF80003B40148019001BD3D4B010003B4014805
:101C0800019001BD154D010003B40148019001BDCB
:101C18002D11010003B40148019001BDF90D010027
:101C280003B40148019001BDA111010003B40148AA
:101C3800019001BDA512010003B40148019001BD46
:101C4800DD13010003B40148019001BDB912010080
:101C580003B40148019001BDC913010003B4014850
:101C6800019001BD0514010003B40148019001BDB4
:101C78009112010003B40148019001BDF113010064
:101C880003B40148019001BDE910010003B4014803
:101C9800019001BDB110010003B40148019001BDDC
:101CA8008914010003B40148019001BD6189000055
:101CB80003B40148019001BDD544010003B40148B3
:101CC800019001BD2D6C010003B40148019001BDD4
:101CD8007997000003B40148019001BD6911010022
:101CE80003B40148019001BD8512010003B4014805
:101CF800019001BD8D11010003B40148019001BD9F
:101D0800E512010010B50E497620C860FFF7D8FD2E
:101D180010BD0446FFF7DAFD0A49C869402290431E
:101D2800C8612046FFF7D8FD01F0CAFC054800212C
:101D3800C0304160042101600120FFF7D3FDFEE7B8
:101D48000020004000F0004010B5FFF7BFFD0A4832
:101D58000468094A41178032116008490160FFF799
:101D6800C7FD204610BD10B50446FFF7AFFD024879
:101D78000460FFF7BDFD10BD00E100E01000100099
:101D8800F8B5D449D24A002004464A608300401C72
:101D9800D450FF28FADD4868CF4A014680318A606E
:101DA8006E22C262CD4A1278002A01D07F22C26216
:101DB8000A220265CA4A13788363CA4BC36115783D
:101DC8001023022D08D01578012D05D01578032D84
:101DD80002D01578042D00D10362C34D4561192541
:101DE800AD0185613725CD6036272826C7630825CC
:101DF800466405644F6032270F603B27CF63412755
:101E0800CF6439274031E0C132274F6002274F6144
:101E180042270831E0C11E274F60CE608D6005263D
:101E28004E6142260E615A2660390E614D613C258D
:101E38008D61AF25ED000560AC4D05631578022D69
:101E480009D01578012D08D01578032D07D01578FD
:101E5800042D06D007E0152504E0436003E00E25B5
:101E680000E00C254560FF252D358560C560FF2500
:101E7800F53505619E4D85647D25ED009D4ECD6748
:101E8800C66445629C4D85627325C5650625456512
:101E98008565C51D0826F93502272E6047664B273C
:101EA800FF0087660927C766944F07674667BE1015
:101EB8008467C667924F8F4E3E601678022E09D00F
:101EC8001678012E0AD01678032E0BD01278042A21
:101ED8000CD00EE01A22CA61212205E01422CA6140
:101EE800182201E01322CB610A6202E00E220B6283
:101EF800CA617F4A8A627D22D2008A6764224A6266
:101F08000522CA6202220A63C8228C634A63382106
:101F180069607C4929647C49A9614B21C900E96150
:101F280074497B4A643929627D2109016962EC663A
:101F38001E212C67A9667149A965E965891029667A
:101F4800696469677149EA67A9677249FF30813036
:101F580006C00160FF21F531416081606F486E491C
:101F68005B4A81606E49803A11616C496D4A8031E3
:101F78008A626D4ACA626D4A82616D4AC2626D4A5E
:101F8800026366486C4A403842636C4AC2636C4AD2
:101F9800CA616C49816361496B48403188616C4909
:101FA8006A4888605D486B4A803842606A4A426382
:101FB8006A4A0A626A49816058496A48C039C860F1
:101FC800FFF79CFC0120FFF79FFCF8BDF3B507461F
:101FD800654881B0C169654A1140FF310931C16165
:101FE800002613E000252C461120FFF793FC5E48DD
:101FF800406A8007800F610088402843641CE4B26F
:102008000546102CF0D301C7761CF6B2029886421A
:10201800E8D3FEBD10B52F4C607800280AD1042102
:102028005348FFF7D3FF524804211030FFF7CEFF83
:102038000120607010BDF0B500248BB00D46064637
:10204800102902D901200BB0F0BDFFF7E3FF484982
:1020580000200A5C401C1419C0B21028F9D3002CC7
:1020680003D0102D03D90B20EDE70E20EBE74148F4
:102078003F4C0023006802A91034E25CC75C7A4038
:10208800CA545B1CDBB2102BF7D306AA3848FFF7FB
:1020980047FC102D00D910252A4606A93046FFF71F
:1020A80045FCFFF749FC216840182060FFF744FC15
:1020B800616840186060FFF73FFCA1684018A060A5
:1020C800FFF73AFCE1684018E0600020BBE7000039
:1020D8000004FF1F604EFF1FB05AFF1F044EFF1F72
:1020E8004A0AFF1F3A07000080C3C9019A0200008C
:1020F80050C30000280A00006A180000204E0000A3
:10210800F009FF1F0040001168100000DC05000006
:1021180040420F00102700006D3CFF1F0001FF1F09
:102128007524FF1FD542FF1FC145FF1F8121FF1FD7
:102138001523FF1F9D21FF1F3D2EFF1F952DFF1FFC
:10214800D54BFF1FF949FF1FB139FF1FF525FF1FA9
:102158000002FF1FF939FF1FC13AFF1F053AFF1F91
:10216800B539FF1F2526FF1F40F0004000FEFEFF87
:102178007C56FF1F804EFF1F70B50124A407A3687B
:1021880010252B43A360FFF7DDFBA068A843A060E0
:1021980070BD0000FFB5064601208007816881B048
:1021A8001D46102211438160554F0020386030468B
:1021B800D730FFF7CDFB9D20800034468059FF368D
:1021C800CA3401360028306822462CD00121FFF796
:1021D800C5FB4B4F2078F863641C2046FFF7C4FB0F
:1021E80000BA000AE17800020843B863241D2046BB
:1021F800FFF7BAFB00BA000AE178000208437863E7
:10220800241D2046FFF7B0FB00BA000AE17800025F
:10221800084338630398029900020843F860039F53
:1022280000243F1D0EE00021D1E72819401CFFF7CC
:102238009BFB0102285D0143324820180160241DE0
:10224800A4B23F1F042FF0DA032F04D0022F08D0C6
:10225800012F0CD011E02819FFF786FB0102090AAB
:1022680006E0291948780A780102114300E0295D3F
:10227800244820180160241DA4B20021214F02E047
:10228800E0190160241DFF2CFADD1D481E4A42603A
:102298000F220261012202604269002AFCD04269D1
:1022A800930701D4520708D40120800782681021BF
:1022B8008A438260002005B0F0BD01600020039AC7
:1022C80011E0C11909682954401C80B20B0A2B542B
:1022D800401C0B0C80B22B54401C80B2090E2954B0
:1022E800401C80B2121F002AEBDC3068401C3060B2
:1022F80001208007826810218A4382600120DAE782
:102308000000044000010440080F0000FFB5054626
:1023180001208007816881B01E4610221143816028
:10232800504F002038602846D730FFF711FB9D201A
:1023380080002C464059CA3480350028E86F224670
:102348002BD00021FFF70AFB464F2078F863641C66
:102358002046FFF709FB00BA000AE17800020843AB
:10236800B863241D2046FFF7FFFA00BA000AE17897
:10237800000208437863241D2046FFF7F5FA00BAE7
:10238800000AE178000208433863039802990002C2
:102398000843F8600024039F0EE00121D2E73019BA
:1023A800401CFFF7E1FA0102305D01432E48201876
:1023B8000160241DA4B23F1F042FF0DA032F04D0BC
:1023C800022F08D0012F0FD014E03019FFF7CCFAF4
:1023D8000102090A09E0311948780978000208431E
:1023E80021496118086003E0315D1F482018016029
:1023F800241DA4B200211C4B02E0E0180160241D3A
:10240800FF2CFADD0F221748120242600F220261E8
:10241800012202604269002AFCD00160039A002070
:10242800121D11E0C11809683154401C80B20C0A11
:102438003454401C0C0C80B23454401C80B2090E39
:102448003154401C80B2121F002AEBDCE86F401C9C
:10245800E86701208007826810218A43826005B0FE
:10246800F0BD00000000044000010440F8B5FFF78B
:1024780063FA564908600420FFF77CFAFFF780FAF0
:102488000646C00715D05249002008605148007818
:10249800012811D0032813D0042815D0022817D0FA
:1024A800052819D0FFF772FA4B4F044601281AD0B5
:1024B8001EE0FFF771FAF8BD3046FFF773FA0EE039
:1024C8003046FFF775FA0AE03046FFF777FA06E07C
:1024D8003046FFF779FA02E03046FFF77BFA40B260
:1024E8000128E8D04FE0387805280BD0062809D015
:1024F8003A483B4D0078022808D0052806D0022C1F
:102508000ED005E0304601F07BFC3CE0022C02D006
:10251800012C11D014E0A87B002805D0022803D094
:102528003878052804D00BE0304601F081FC15E02E
:10253800304601F071FC11E0012807D0062809D0C7
:102548003046FFF74DFA022C08D01CE0304601F067
:1025580087FC18E0304601F077FC14E03878012851
:1025680011D170050FD4687BC10701D0252004E084
:10257800800701D5262000E02720297D814202D945
:102588003220FFF733FA154C2078042804D00328AA
:102598000ED0072811D014E0FFF72EFA002810D02B
:1025A800FFF730FA5820FFF733FA0220207008E0CE
:1025B8000C48807CFFF732FA03E00B48807BFFF77A
:1025C80033FA0320FFF7D6F9F8BD00009C09FF1F76
:1025D8009809FF1F9009FF1F1C09FF1F2309FF1FF0
:1025E800A60BFF1FBC0BFF1FD40BFF1F10B5FB2949
:1025F80008D8084B9A4205D81B2903D3FF2349332F
:102608009A4201D2302010BD034B19825A82FFF73B
:1026180011FA10BD480800008410FF1F10B5FFF71D
:102628000FFA02490020488010BD0000604EFF1FCD
:10263800FEB5404F4149B8703F480861062201A9DC
:102648003F4800F0C1FC384611210C30417122216D
:1026580001713321C1704421817055214170662177
:1026680001700020374A01461154401CC0B2FF28AF
:10267800FAD3354802240470012545700622827079
:102688001B22C270FF260671042242710522827144
:10269800C571047203224272CC238372C172027321
:1026A800AA23437381739321C1730374672141740F
:1026B800F7218174DB21C17434210175C42141756E
:1026C80082758E21C1755C2101760B214176837656
:1026D8009721C1763021017756214177E62181770C
:1026E8001AA00068009013481F23174A69460C3047
:1026F80001F042FD144816492C3006704160C8218B
:102708008160FF21F53101821249C18104730C38BF
:10271800057025214170C4700F49416053218170B3
:102728000E4981607D22D2000121B878FFF78EF929
:10273800FEBD00000C4EFF1F1D29FF1F8003FF1F59
:10274800004000119453FF1F9454FF1F0025000000
:10275800881300001027000055555500D6BE898EF5
:10276800F8B5324E324835460C46CA070C3529783A
:1027780080780227002A13D0FF2905D014220121CE
:10278800FFF764F901204DE0002028702F735320D3
:10279800B07001F085FC2648012180786A68EFE76F
:1027A800A20717D5FF2906D014220221FFF74EF9F8
:1027B80020467840F8BD012028702F73FFF7BCF839
:1027C80068615320B07001F045FC194802218078F7
:1027D800AA68EBE7A00603D501F0A8FC202021E0B9
:1027E800600716D5287B022804D01A2806D050285E
:1027F8000BD00CE01A202873332002E050202873F5
:102808007320B07001F04CFC01E0FF202870042018
:1028180008E0200703D501F0C7FC082002E0E00625
:1028280002D510206040F8BD0020F8BDB454FF1F49
:102838000C4EFF1FC106C90E0120884001490860DF
:102848007047000000E100E08307FF22DB0E9A409A
:102858008907090E994000280BDA0007000F08388D
:10286800830808489B001818C36993430B43C36146
:102878007047830804489B001B1818689043084356
:102888001860704700ED00E000E400E08307FF22D5
:10289800DB0E9A408907090E994000280BDA0007D9
:1028A800000F0838830808489B001818C369934329
:1028B8000B43C3617047830804489B001B181868C2
:1028C800904308431860704700ED00E000E400E022
:1028D8008307FF22DB0E9A408907090E99400028DA
:1028E8000BDA0007000F0838830808489B001818FF
:1028F800C36993430B43C3617047830804489B0033
:102908001B181868904308431860704700ED00E0F2
:1029180000E400E0F0B585B0FFF70EF83C4DA86084
:10292800FFF72EF80446C00711D03A490020086086
:10293800FEF7CCFFFFF72AF8374900280BD00F46DF
:102948000C3F2E4601280BD0022831D051E0FFF76A
:1029580023F805B0F0BD087800284AD1042145E0E5
:102968000878012845D12A4A111DC81E01F078FEB1
:10297800F878002813D060050FD502AB01AA03A987
:102988002648FFF769F8224B00961B1DDA1E0299AC
:10299800019801F07DFE01F0B7FB082126E06007F1
:1029A800FBD402AB01AA03A91C48FFF75BF8EAE7CE
:1029B800087802281DD1164A111DC81E01F050FEC4
:1029C800F87800281AD060050FD502AB01AA03A930
:1029D8001248FFF741F80E4B00961B1DDA1E0299AC
:1029E800019801F055FE01F08FFB1021A878FFF740
:1029F8003FF8FEF7D1FFFEF77BFFAAE76007F4D4A4
:102A080002AB01AA03A90548FFF72CF8E3E7000089
:102A18000C4EFF1F9809FF1FC054FF1F9452FF1F41
:102A2800024901480860704740787D015C4EFF1FED
:102A380002E008C8121F08C1002AFAD1704770477F
:102A4800002001E001C1121F002AFBD170470000DD
:102A58000248C069002800D0004770474003FF1FA4
:102A68001CB569460120FFF709F8012000900348CA
:102A7800019000F0F5F901201CBD0000BB0B00001F
:102A880002480068002800D08047FEE7584EFF1F24
:102A980010B500F0C3F9FFF7E3FF002802D00248A1
:102AA800804710BDFEE70000E1A20000F0B585B048
:102AB80005460291002927D0154F0024144E803F67
:102AC800002300940222194605200194FEF7DCFF3A
:102AD80030698007FCD420200090411E009101D36A
:102AE8000846FAE738680028FCDA012103A8FEF74F
:102AF800D1FF6846007B284007D00520FEF70AFF73
:102B08000298401E0290DBD1112005B0F0BD0000F4
:102B180080C8004010B5FEF7C3FF0120FEF7C6FFCE
:102B2800FEF7CAFF002010BDF8B54E484068C04304
:102B3800000603D53C20FEF7EDFEF8BDFEF7C2FF08
:102B4800484D0090803D2868012189040843286089
:102B5800E869454908402830E8610320FEF7DAFEB5
:102B6800686AC703FF0B0320FEF7D4FE686AC40334
:102B7800E40B0320FEF7CEFE686AC603F60BA742F5
:102B880001D3204600E03846B04200D33046A74281
:102B980001D3394600E02146B14200D23146334ADA
:102BA800BA18C32A26D2314BDB439C4222D9304A79
:102BB80094421FD29E421DD996421BD2081A13284E
:102BC80018D2284842680C218A4342604168FF2293
:102BD8001202914341601420FEF79CFE2148803880
:102BE800416AC269C903C90B08239A43C2612148D3
:102BF800C160F8BD274634460320FEF78BFE19480E
:102C08008038406AC603F60BFEF75CFF00998842DD
:102C180001D3401A01E0401A401E17498842AED33A
:102C28001048416809040D0E4168FF2212029143C1
:102C38006A1C1206120C1143416041680C22914330
:102C4800091D41600020FEF743FF642D02D30548AB
:102C580000214160062D00D306250748A840FFF74C
:102C680058F88CE7C0F0004000FEFEFF91FCFFFF23
:102C780032040000604EFF1FE40C0000F8B53D4828
:102C880040683C4C0006803C8021002806DB6068D8
:102C9800084360600320FEF73DFEF8BD364D002076
:102CA800686120680122920410432060334F6068F5
:102CB8008021084360600320FEF72CFE6869401CF1
:102CC8006861606801210904084360600026E069C2
:102CD8002B4938404018E0610320FEF71BFE606A6C
:102CE800E169C003C00B08229143E161E96806224B
:102CF8005143814201D3091A00E0411A3C2909D203
:102D0800E269012109048A43E26162688A436260D8
:102D18002861F8BD761CF6B2052ED8D3E1690120EA
:102D280000048143E16161688143616068692E46FE
:102D3800052807D3BFF34F8F13491248C860BFF364
:102D48004F8FFEE760688021884360600320FEF7AC
:102D5800E1FDE06938402830E0610320FEF7DAFD44
:102D6800606AC003C00BF060E16908208143E1613B
:102D78009DE70000C0F00040604EFF1F00FEFEFF10
:102D8800280001000400FA0500ED00E0F8B504464B
:102D98000120FEF7BFFDFEF7A1FE1849184A08609A
:102DA800966A184B1E60184BDF6A184D2D68AF42A3
:102DB80002D2DB6AEB1A00E00023154D2B603319B1
:102DC800D362536A2924E40323435362114A1278D5
:102DD800002A0FD0104A1378022B07D01378012B42
:102DE80006D01278032A06D0C01E02E00F3800E091
:102DF80008380860F8BD401FFBE70000E408FF1F23
:102E080000F00040340AFF1F00100040180AFF1F9E
:102E18001C0AFF1F1C09FF1F4A0AFF1F0349002045
:102E280048610349086048607047000040F000406E
:102E380040F1004010B5044607484068808DC0073F
:102E480005D00648406AC003C00B01F013FA2046BB
:102E5800FEF74AFE10BD0000604EFF1F40F0004024
:102E680070B58AB000241E4D049405942878012872
:102E780006D004A90120FEF701FE002802D0002098
:102E88000AB070BD049800900598019015488168B3
:102E98000291C0681349039006AA10316846FEF7EC
:102EA80051FD104E10222036314606A8FEF722FEAC
:102EB800002811D0012028700B4A31466846FEF7D9
:102EC80041FD04940020694605948200401C8C5002
:102ED8000428FADB0120D3E7FF202870CFE70000A1
:102EE800844EFF1F002900119C56FF1F10B504488F
:102EF800C16B034A40321068D06000F043FB10BD3C
:102F0800008000400648006AC00708D00448103016
:102F1800C06804480168002901D0052008477047A7
:102F280040100040204EFF1F0648406BC00708D0E5
:102F380004482430C06804480168002901D00620EC
:102F48000847704740100040204EFF1F38B5FEF775
:102F5800BDFC01229207936A08240094002B01D13A
:102F6800012090620A480221016000994D1E0095D7
:102F7800FBD2032101600094641E0094FCD200215E
:102F88000160002B00D19162FEF7B2FC38BD000051
:102F980000C00040012292070121202804D2936832
:102FA80081400B4393607047402805D2536920380D
:102FB80081400B43536170476028FCD2136A403844
:102FC80081400B4313627047F7B582B00446FEF7A1
:102FD800BBFE009060031121400B090647188D01C4
:102FE800AE6A22488168E812814209D91F20C004CC
:102FF800044005D01E4844620168AA1311430160C9
:10300800002E09D1FEF762FC1A49022008606862A6
:103018000120A862FEF76CFC002003E03A5C0399EB
:103028000A54401C04998842F8D30027002E08D17E
:10303800FEF74CFC0F48076003206862AF62FEF79A
:1030480057FC0A4881680120C004814208D9002C35
:1030580006D0074847620268012109048A430260D2
:103068000098FEF780FE002005B0F0BD4C4EFF1F13
:1030780000C8004000C00040F0B52C4C89B0207852
:10308800012818D0FEF760FE294D079028698007AF
:10309800FCD4202700970098411E0091FBD2244EB3
:1030A800803E30680028FCDA22490120FFF7FEFC48
:1030B800002821D102E0002009B0F0BD00200090D6
:1030C80003460146019003229F20FEF7DDFC032101
:1030D80002A8FEF7DFFC28698007FCD40097009857
:1030E800411E0091FBD230680028FCDA114901200A
:1030F800FFF7DCFC002801D01120DDE70798FEF778
:1031080032FE02980C4A0002000A60606846817A22
:10311800012308461138052802D81846884001E0DE
:103128000120C004A06090612370C4E74C4EFF1FCB
:1031380080C80040FFFFFF078008FF1F30B5C21F8F
:103148000A2A01D3062030BD0124074D94400029E6
:1031580005D0002100F0A6F82868204301E028687F
:10316800A0432860002030BD00380040054B0122F4
:103178008240D868002901D0104300E09043D8600D
:10318800704700000038004010B5114C2078002826
:1031980001D0072010BDFF212D310D48FEF7B0FCEE
:1031A800012020700B490020086348630A4908621F
:1031B800486202211020FFF769FB0120074900043B
:1031C8000860074A07490D2000F0BAFA002010BD30
:1031D800D854FF1F0080004080F0004000E100E06C
:1031E800FD33FF1F7133FF1F10B5172801D30520CA
:1031F80010BD0C4B9C6B0122824010462043986303
:10320800586B90435863DC6B012907D020469043E4
:10321800D863186B02431A63002010BD1046204380
:10322800F6E7000000800040054B0122801E824026
:103238005869002901D0104300E090435861704755
:103248000038004070B5044614480E460519002998
:1032580002D16878012808D000212046FFF786FFB0
:10326800022C04D0032C02D005E0072070BD0121F8
:103278002046FFF7D9FF00212046FFF75FFF0849E6
:103288000120A0404A68012E05D082434A600220EE
:103298006870002070BD02434A60FAE7D854FF1FE7
:1032A8000080004070B5420083180D4A9C18A5782C
:1032B8006478D65C641B0122641CA240521EAA409A
:1032C800084BA940132806D2B000C018836893435E
:1032D8000B43836070BD586990430843586170BDC3
:1032E8004C4DFF1F00F0004007494A680123834006
:1032F8001A4201D0096802E0034940310969C14016
:10330800C807C00F704700000080004070B5154C1A
:1033180045002E1976780123114AB34000290ED0B2
:10332800142809D0152807D0162805D06057800022
:103338008018816819430DE0506918430EE014287D
:103348000AD0152808D0162806D0605780008018A3
:1033580081689943816070BD50699843506170BD20
:1033680000F00040914DFF1F70B5104D00242E193C
:103378007078012803D1E0B20121FFF7C7FF707808
:1033880002280ED1E0B2FFF7AFFF01214140E0B2C1
:1033980000F078F8E0B2FFF7A7FF0C216143491964
:1033A8004876641C172CE2DB70BD0000D854FF1F60
:1033B80010B50F4C0D4A0123245C142809D2106A59
:1033C800002902D0A340184301E0A34098431062AB
:1033D80010BD506A002903D0203CA340184302E0E6
:1033E800203CA3409843506210BD000080F000408C
:1033F800354DFF1F70B502211020FFF747FA012055
:103408001E490004086000241D4D07E0022C01D06D
:10341800032C03D1E0B20121FFF706FF28194078F9
:1034280001280BD1E0B2FFF75FFFE2B20146104678
:1034380000F064F8E0B20021FFF768FF0C20604359
:103448004019007E002814D0E0B200F069F8E6B216
:103458003046FFF749FF002801D0012100E0002194
:103468000C2272435219527E824202D0304600F03A
:10347800BDF8641C172CC9DB70BD000000E100E03A
:10348800D854FF1FF8B542008318184AD55C9A181B
:103498009278521ED4B2164A12185278022A21D1B2
:1034A800144EB76B0122134683401F43B763124B78
:1034B80013280ED2002906D0A900C9188B68A2408B
:1034C80093438B600BE0A900C9188B68A240134393
:1034D800F7E70029596906D0A240914359610121B3
:1034E800FFF766FFF8BDA2401143F7E74C4DFF1FF9
:1034F800D854FF1F0080004000F00040012200B5B2
:10350800064B82400029196801D0114300E091431D
:1035180019600121FFF796FE00BD00000080004001
:1035280070B50446164821460C2251430D186A68A6
:103538000026002A02D1AA68002A1CD0104B0222B9
:10354800183B1B195A700122425400212046FFF7EC
:1035580079FE6868002808D0A86800280DD02046A1
:10356800FFF7C2FE002808D0002631462046FFF7A4
:103578003BFE002070BD122070BD0126F5E700005B
:10358800F054FF1FF3B5184E002481B007460125FB
:103598002846A040384223D00299084000D0012094
:1035A8000090E0B2009900F021F80C2060438019E7
:1035B8004168806800290ED0002807D000980028AC
:1035C80002D00021E0B203E00121FBE7E0B20121D3
:1035D800FFF70AFE04E0002802D0E0B20021F7E776
:1035E800641C172CD4DBFEBDF054FF1F074A0C23C4
:1035F80043439B185A68002A01D0012904D09A68CD
:10360800002A02D0002900D110477047F054FF1F4C
:1036180030B585B0142217496846FEF777FA0024BA
:103628006D46600041194978285CFFF73BFE641C31
:10363800E4B20A2CF5D310484169C200914305222F
:1036480012048918416141690122520611434161FE
:1036580041690322520591430122520589184161AB
:10366800012000F021F800F035F800F007F805B067
:1036780030BD00001C4DFF1F00F0004008B50422BB
:1036880069460748FFF7A0FC0098401C05D105488B
:1036980041690122920611434161002008BD0000E2
:1036A8001C18001100F000400449420903D0002012
:1036B800C86006207047C86000207047244EFF1F6E
:1036C8000348C1691F2252049143C1610020704719
:1036D80000F000400548C1691F2252049143044A82
:1036E800928952041143C1610020704700F00040E4
:1036F800244EFF1F10B578210C48FEF701FA0C483C
:103708000078012803D0022804D0042804D1FEF749
:1037180003FA01E0FEF7F2F806480078C00702D085
:10372800064905480863002010BD00000456FF1F25
:10373800244EFF1F002000400D1DFF1FC000FF1F6B
:1037480030B50D4C00230C255D43655D854201D1E4
:10375800072030BD002D04D05B1C0A2BF3DB0320AF
:1037680030BD0C256B431B19F9D000245C70187010
:103778009A602046596030BD0456FF1F70B5FFF7A8
:10378800A9FF094D002420460C214843295C002943
:1037980007D040194068002800D08047641C0A2CD4
:1037A800F1DB002070BD00000456FF1F70B51948FA
:1037B8000121890742688A60826801231A434A61A5
:1037C80015490A6B0261496B416100210420FFF72A
:1037D8007FF801211420FFF77BF801211520FFF75E
:1037E80077F801211720FFF773F80C4D00242046C5
:1037F8000C214843295C002909D040198068002819
:1038080000D08047641C0A2CF1DB002070BD122018
:1038180070BD0000244EFF1F80F000400456FF1FBB
:1038280010B516490A200870154901200870154975
:10383800002008701448C16B490949010931C16366
:10384800C16B602291432031C16300F021F800214F
:103858000420FEF7F9FF01211420FEF7F5FF0121EE
:103868001520FEF7F1FF01211720FEF7EDFF0121DA
:1038780089020648FEF756F910BD0000480AFF1FE6
:10388800490AFF1F680AFF1F80F00040944EFF1F7F
:1038980010B5FFF7FDF810BD70B5174C402501288D
:1038A80019D0002816D100210A20FFF7FBFC0021BF
:1038B8000B20FFF7F7FCE069032109020843E061E8
:1038C800E069A843E06160690B21400140090907EC
:1038D8004018606170BD6069052140014009C90652
:1038E80040186061E0690549084005494018E061F1
:1038F800E0692843E06170BD00F000407F00FEFFF2
:1039080080FD010010B5064AD160906000F012F801
:10391800044A00211320FFF713FF002010BD000008
:103928003C4EFF1F3D39FF1F08B500200090684638
:10393800FFF7A6F8F8B50025164800954268007804
:103948002B460121FEF7F4F8144913488863012037
:1039580013498004086013480168FF2212040226F4
:103968009143B20511430160642000904120FFF7A4
:1039780011FB4020FFF70EFB740766620098411E9A
:103988000091FBD203206062FFF7E0FAA562FFF71F
:1039980073FBF8BD444EFF1F050001FF00C800403F
:1039A80080E100E010E400E07047000070B50D46CB
:1039B8000446282910D1A420005BE188401A0B494D
:1039C80080B2884208D321466A3105220E46481F34
:1039D800FEF790F8002804D029462046FEF7AEF8F6
:1039E80070BD31462046FEF7AFF870BDFF7F00007E
:1039F80010B5002901D0FEF7ADF810BD70B5264D01
:103A0800264E2868002804D0FEF7AAF82978C8406E
:103A180004E0FEF7A5F83168FEF7A8F80446286820
:103A2800002804D0FEF7A8F82978C84004E0FEF77B
:103A3800A3F83168FEF79AF81949A122897892000B
:103A48005143184A184B126889180D78174A002DE7
:103A580017D0FF31FF3102314C6C1548641C4C649F
:103A680000689968884201D3401A02E0114B591A3C
:103A78000818D2381060012C02D1FF30F5301060E0
:103A880070BDFF31FF31002502314D645968201A9D
:103A9800C9684018F3E700001C08FF1F1808FF1F3B
:103AA800300DFF1F3409FF1F604EFF1FA009FF1FC5
:103AB8009C09FF1FFFFF3F00F3B506466548A1219B
:103AC800807889004843644983B00968A122441872
:103AD8002046FF3021305F49009089789200514399
:103AE8005D4A407D126800258F18FF3781373228DC
:103AF8001DD022281BD0F86A0168002909D08188C6
:103B0800001D090A891CFEF73DF8F96A0020012505
:103B18000860FEF73DF804992746FF370880C1374B
:103B2800387C002821D0B0421FDC002014E04B492B
:103B3800012008600020F96A01250860E9E7800093
:103B48000019FF308130006B8188001D090A891C2B
:103B5800FEF718F80198401C0190397C8142EEDC90
:103B6800C8B2361A4519002038743D490020C8707B
:103B7800FF20AD3000590168002903D00079C04307
:103B880080071ED00098C07D00281AD00098807D3C
:103B9800002816D1387CB04213DAFF204930005B88
:103BA800010A2046FF304930891CFDF7EBFF0099D8
:103BB8000020C87500980121817529486D1CC170C5
:103BC800761E387C002802D0284605B0F0BD204675
:103BD800FDF7E4FF0090002821DD002E1FDD0027FF
:103BE80018E02046FDF7E0FF80000019FF300130A3
:103BF800C06E8188001D090A891CFDF7C3FF204695
:103C0800FDF7D8FFE01DFF30FA30016A6D1C491C32
:103C18007F1C01620098874201DAB742E1DB092084
:103C280080012018817E002911D0017D00290ED045
:103C3800428E002A0BD0817F914202D2491C8177A3
:103C480005E0002181771A212046FDF7B9FFA8B2C7
:103C5800BBE70000300DFF1F3409FF1F00140340AD
:103C6800E010FF1F70B54E480068012803D14D4889
:103C7800816D491C8165FDF75FFE4B4D4B49A8607E
:103C88004B4841610124C46004602878002806D0AC
:103C9800062248494848FDF749FE00202870474950
:103CA800486B474AC0B21278002A17D1454A002308
:103CB800D356002B444BD35606DB1B04002555571F
:103CC8002A029A18121808E0FF331B0400255557DA
:103CD8002A029A183D4B1218D2184A63022801D2B8
:103CE800022002E0502800D95020394A1278022ACE
:103CF80011D0384A1578384B1E78B5420FD9157847
:103D08001B78EB1A801E4010434310784001C01AFC
:103D18001030401104E0314A1578314BECE7107847
:103D28004A69120A120210434861FDF72FFE054640
:103D3800052801D0042D1ED12A480078002806D075
:103D480029480078002802D00020FDF73FFF2748C7
:103D5800A121807889004843254909684018FF3027
:103D6800FF300230007B042801D0032803D1FF2054
:103D78005F30FDF74DFE022D0ED11E480078012858
:103D880007D0032805D0022803D01B480078022852
:103D980002D16C20FDF73CFE1848C48270BD0000BB
:103DA8009809FF1FFC0FFF1F604EFF1FFF3F000019
:103DB80000100340D50BFF1F7211FF1F8000034046
:103DC8008C09FF1F680AFF1F00000000FFFE0000AB
:103DD800490AFF1F440AFF1F450AFF1F460AFF1F23
:103DE800470AFF1FF908FF1F2209FF1F300DFF1F99
:103DF8003409FF1F1C09FF1F2309FF1FBC0BFF1FEE
:103E080010B504490968002901D0884710BDFDF79D
:103E1800E7FD10BD8002FF1F10B50449896800291D
:103E280001D0884710BDFDF7DBFD10BD8002FF1FE4
:103E380010B504494968002901D0884710BDFDF72D
:103E4800CFFD10BD8002FF1F10B504490969002984
:103E580001D0884710BDFDF7C3FD10BD8002FF1FCC
:103E680010B50449C968002901D0884710BDFDF77D
:103E7800B7FD10BD8002FF1F70B5104C02202070E6
:103E88000F4D01202870FDF7A7FEFDF779FFFFF71A
:103E9800C7FCFFF7BDFB2078FDF7A4FE2878FFF7E5
:103EA800FBFCFFF727FC074903C9FFF72BFDFFF7CA
:103EB8006BF9FEF72FFE002070BD00004A0AFF1FB5
:103EC800044EFF1F144DFF1F10B500240220FDF7FC
:103ED8008FFE0549022208600021FDF78FFE20466B
:103EE800FEF7A6FB10BD0000084EFF1F30B51A48AC
:103EF800184941610121C16001601849486BC0B28D
:103F0800022801D2022002E0502800D95020144A89
:103F18001278022A11D0134A1478134B1D78AC4238
:103F280015D914781B78E31A801E40104343107883
:103F38004001C01A1030401103E00C4A14780C4BB1
:103F4800ECE74A69120A12021043486130BD107842
:103F5800F7E70000FF3F0000001003408000034027
:103F6800B454FF1F440AFF1F450AFF1F460AFF1FDC
:103F7800470AFF1F37B56846007800F04BFA6846D5
:103F8800C078104C002816D00146FDF73DFEA06809
:103F98000199000E00060843A0600220FDF73AFED2
:103FA800A068694600028978000A09060843A060EB
:103FB8000298E0603EBD68464078FDF731FE00207B
:103FC800ECE700004000034010B5FDF721FDFDF7C8
:103FD8002DFE3C2208215A20FDF72EFE10BD10B5FB
:103FE800FDF730FE3C2208215A20FDF725FE10BDC2
:103FF80010B5FDF70DFDFDF72BFE3C2208215A20D8
:10400800FDF71AFE10BD000070B500242120FDF751
:10401800FFFC064D06E00320FDF77CFC641CE4B2BF
:104028000A2C02D828680028F5D170BD9809FF1F0E
:1040380010B501210A20FDF711FE3C20FDF714FE02
:104048004220FDF717FE342208213920FDF7F4FD40
:1040580010BD000010B5FFF7D7FFFDF737FC0E487D
:1040680007C8FFF787FFFFF7E3FF0B4C0C34207BF3
:1040780000F05EF8E089FFF7A7FFFDF701FEFDF706
:1040880005FEFF20FDF7A2FDFFF730FF03490120E1
:104098000860FDF72DFC10BDB454FF1F9809FF1FE1
:1040A80010B5FFF7B1FFFDF711FC144807C8FFF77B
:1040B80061FFFFF7BDFF114C0C34207B00F038F88E
:1040C8002078022815D0FFF78AFFFDF7D9FDFDF704
:1040D800DDFDFF20FDF77AFD09484178891CFDF7D1
:1040E80051FDFFF703FF074901200860FDF700FCB9
:1040F80010BD208AFFF77CFFE7E70000B454FF1FDC
:104108009453FF1F9809FF1F10B50648007803282D
:1041180006D0054820218078FDF7AAFC002010BDB4
:10412800012010BDC054FF1F0C4EFF1F7047000038
:1041380010B50D490023CB560C4A002B0C4BCB561F
:1041480006DB1B0400240C5721025918081808E044
:10415800FF331B0400240C5721025918081805497D
:104168004018506310BD0000680AFF1F800003401C
:1041780000000000FFFE000070B5164604461D460C
:1041880002220848FDF7D2FB064806222146801C79
:10419800FDF7CCFB03482A4631460830FDF7C6FB3D
:1041A80070BD00009453FF1F10B5FDF7C5FB124901
:1041B8004A69824201D8821A02E0104B9A1A1218F0
:1041C800CB899A4202D2FFF745FF10BD48610A4ADF
:1041D800087B0C3A022806D01A2808D05028F4D1B7
:1041E800FF20087010BD1A200873332002E0502009
:1041F800087373209070E6E7C054FF1FFFFF3F006D
:10420800F8B51B484168802211434160184D0A26C1
:104218000027803DE86940084000E8610620FDF776
:1042280079FB134CC03CA06980210843A061E86970
:1042380001210843E86102E00820FDF76BFBA86A4A
:10424800800504D43046761EF6B20028F4D1002E3C
:1042580007D0286A7E21C70BA0690F4088433843DE
:10426800A061A16980208143A1613806400EF8BD94
:10427800C0F00040124B10B512497E2298420AD96C
:104288008B695B069B0E06D088698B694006800E99
:104298009343401E0CE00C4B98420FD288691040A3
:1042A8007E280BD288698B694006800E9343401C98
:1042B800400003438B610320FDF72CFB10BD000079
:1042C8000B20000000F00040FD1C000010B508495C
:1042D800064808600749086000F0D6FA064A012136
:1042E800582000F041FAFFF78BFF10BD841E000034
:1042F800140AFF1F380AFF1F600AFF1F30B538482D
:1043080001680122920411430160416803221206E8
:104318009143344A13781B061943416043680321CB
:1043280089058B4330490C78A405234343604368CF
:104338006024234343601378022B08D01378012BA1
:1043480005D00B78022B02D00B78012B04D14368DF
:10435800FF240134234343601278032A02D00A78E9
:10436800032A03D1426880231A4342604268032328
:104378009B041A4342600B780122D2051B48002B8C
:1043880003D11B4B1B78032B19D0C3689343C3601D
:10439800164A184B4032D360FF2581351561164CFB
:1043A8005461164B9361114B80335D609C60144CD3
:1043B800DC60144B03600978002903D006E0C36869
:1043C8001343E4E701680123194301600E490978A2
:1043D8000E4BC906C90BC91881630D48D06130BDA1
:1043E80040F000404C0AFF1F4B0AFF1F80000340AB
:1043F8004A0AFF1FC00B00207A3E6A0700008904A2
:1044080000808904CC240000480AFF1F250800000A
:104418002FFCA601F8B505004A484B4B4B4C4C4ABB
:104428004C4934D0022D32D0861557100662866961
:104438009E43B31883612078002833D00F61464823
:104448000863464800780122120380184861414EEB
:10445800404C434B803E403C002D27D06521414ACB
:10446800C9024148012D2ED0022D31D0032D5AD03A
:10447800042D58D03D49691831603D49A160236039
:10448800E06002210846FDF7BFFB3A482BE0802692
:10449800066286699E430123DB04F618866120784C
:1044A800002801D00A61CAE70B61C8E732483060CA
:1044B8000020A06023603148E06003210846FDF732
:1044C800A3FB2F480FE02F4B3360A2602160D7E792
:1044D8002C4B5B1C3360A2602160E060022108461F
:1044E800FDF792FB28482061F068FF210843F0603F
:1044F800264860612648A0612648E0612648206277
:10450800264860622648A0622648E0622648206362
:1045180026486063E020012D0DD02168022D0ED0C1
:1045280081432160F8BD224BEB183360214B736047
:104538002160A260A4E7216881432031F1E781432B
:104548004031EEE7C000034000001C004B0AFF1F8B
:10455800000004008000034003000001440AFF1F1C
:1045680000280B0055555537D6BE898E0080064267
:1045780055555500805508220080067807EE753697
:10458800806608220180063D80450822A49C5C5470
:104598004C44434241524C46403A342E28007F5501
:1045A8004F49433D37312B4C46403A342E28221C84
:1045B80000800698545A9850F0B5224B214D214955
:1045C8008026204A0727BF04403BC03DE0248039AD
:1045D80002281662966914D0BE430127BF04F61953
:1045E8009661194A1278002A1ED07A101A61012899
:1045F8001ED0164A80182860154808610868A0432C
:1046080014E00120BE43C004361896610E4A1278A1
:10461800002A00D0401018610E4828600E48086132
:104628000868A043403001E01F61E0E70860F0BD82
:104638000848401E2860094808610868A0432030DF
:10464800F4E70000C00003404B0AFF1F00800698F3
:10465800805508220280063D80450822806608228F
:1046680070B50A4B5C6A9D6AA30501269B0D76020C
:10467800B34201D99B1B02E0FF33FF3302330B80A7
:10468800290E0170200E107070BD0000C00003409C
:1046980070B584050126A40D7602049DB44201D9A3
:1046A800A41B02E0FF34FF340234090E1C80117091
:1046B800000E287070BD000010B50A49002008706F
:1046C800094902200870FFF719FE0848007800F031
:1046D80011F8074C2078FFF79DFE2078FDF7DCFAEB
:1046E80010BD00004B0AFF1F4C0AFF1F480AFF1F9E
:1046F800490AFF1FF0B51A4A03230725D6001949AE
:104708009B026024ED0157693F281AD0B74305265C
:104718003604BE195661CA689A43CB14D218CA60C7
:10472800CA69A2432032CA61CA69AA43CA610D494B
:1047380040398A6BC0061205120DC00B02438A630A
:10474800F0BDB7430126B604BE195661CA689A433C
:10475800CA60CA69A243CA61CA69AA438032E5E746
:1047680000F00040C0000340F8B53A4B5D6A9C6A0F
:1047780000265E629E62384B58630E2018629E15B2
:104788005E62402098625020D862FF202B30586229
:1047980031484030012915D0802101622F49FF237B
:1047A8002D48A533403083602D4B43602A4B2D485C
:1047B800403B18617D20C0000090471E009705D33C
:1047C8003846FAE7066225498331E8E7264889052D
:1047D8000F18214840388763234B5B1CC918816335
:1047E80022480090224800780300FDF75BFA050490
:1047F8000408060D08001F4800E01F4800901F48E5
:1048080010601548403005E01D48F7E7C16AC94304
:10481800890F14D000994B1E0093F7D20E494039E6
:104828008F630D4900228A62CA6282604E620A6200
:10483800FF2041304862074845628462F8BDC16A7A
:10484800104B1940116011680122090C12048918D3
:104858004160E3E70010034080000340CA02000003
:104868002020000080560C206465210010270000DD
:104878004A0AFF1F204E000030750000000020206B
:10488800409C0000FFFF3F3F00B50021022000F0E0
:1048980021F80C49801C08700021422000F01AF809
:1048A8000949801C08700121022000F013F807490B
:1048B800801C08700121422000F00CF80449801C7B
:1048C800087000BD440AFF1F450AFF1F460AFF1F64
:1048D800470AFF1FF8B53B4C394A2260394D394A1F
:1048E80007239B04803540320129A9690ED09943DA
:1048F80001239B04C918A9613349D16033490B7856
:104908000121C905324E002B07D009E09943012344
:10491800DB04C918A9612F49EFE73378032B14D0BA
:10492800D3688B43D36050630E2010620027576210
:10493800FF20153050622848009030780300FDF7BA
:10494800B1F90507070D090B0D00D3680B43E9E71B
:10495800224802E0224800E0224800900098431EC6
:104968000093FBD2686B57620002000E17621E4B61
:10497800D360FF23413353626523DB0223601B4D61
:104988002F78E023012F0AD02D78022D25680AD030
:104998009D4325600D4B1B78002B07D009E0256847
:1049A8009D432035F5E79D434035F2E73378032BE7
:1049B80003D0D3688B43D360F8BDD3680B43FAE7C1
:1049C80010000300400003407F4073004B0AFF1FA4
:1049D8004A0AFF1F7F40530010270000204E0000A6
:1049E80030750000409C000040401000490AFF1F3D
:1049F800F8B5614C60688030806880F30888FDF7FE
:104A0800EBF85E485E4900680225884206D000201F
:104A1800FDF75EF868070169A943016100F0D6F85F
:104A280058480078FDF738F9574E0020F061F561D5
:104A3800564D75610120FCF76DFF0320F061FDF70D
:104A480041F80746FCF778FF0646FDF73BF8504962
:104A58000860FFF731FE4F480068874201D9381ACD
:104A680001E0381A401E4C49884200D90840616864
:104A78008A8DD20709D0494A030C126880B2534381
:104A880050431B02000A18180BE0C2018300D21A17
:104A98004300D21AC3001818921C80309208400AAA
:104AA8001018E061FF313E48013149680068091873
:104AB8003C480068081A41198B083B488A073B495B
:104AC80003600D68920F52190A60042A04D95B1C0E
:104AD8009207920F03600A60E169354FC81839469A
:104AE800FDF744F802463348334D0368D318036092
:104AF8002A688A182A60BA4206D95B1C03603946BC
:104B08001046FDF733F82960FDF7D2F82B480078F6
:104B1800002810D0FCF710FF294AE169801B1268B1
:104B28000B18934202D2511A091A01E07D21C900DB
:104B38001548FDF7C3F8234D287A002811D0FCF753
:104B4800FBFE811BE3691048EA685C183C30A2420E
:104B580002D9D21A511A00E01B49FDF7AFF800201C
:104B68002872FDF7B1F80220FCF704FF0020FCF7DB
:104B7800AFFFFCF7A1FFF8BD604EFF1F0C0AFF1F37
:104B8800B6412103490AFF1F00100040C409000074
:104B9800100AFF1F340AFF1FFFFF3F00380AFF1FDC
:104BA8001C0AFF1F200AFF1F240AFF1F280AFF1FD5
:104BB800710200006008FF1F2C0AFF1F1C09FF1F5D
:104BC800E408FF1F740BFF1FDC050000F8B5FEF7B3
:104BD80025F9FDF73DFF0120404E00903078404C0C
:104BE800022810D0FCF76EFF05463220FCF792FE33
:104BF800FDF79AFF0F20FCF78DFE3078012808D0CA
:104C0800FEF73CF81AE037484068006AFCF782FE75
:104C180024E033484038C06B4007400F012802D1D8
:104C28000020FCF7DFFF6068FF270137B8436060AA
:104C38000220FCF76FFE606838436060FCF742FFB3
:104C4800A84201D3401B01E0401B401E25491E22FB
:104C580088615043244A49688018C8612449234818
:104C68000860234823498030C163FF2141314162F4
:104C78003078FCF7B7FF20492048FDF71FF81F4898
:104C88001F491430FDF71AF80420FDF7D3FD14204E
:104C9800FDF7D0FD1520FDF7CDFD1720FDF7CAFD66
:104CA800FF20FCF793FF0120FDF714F8FF20F530F3
:104CB800FDF716F85820FCF7ABFE1248FDF716F87A
:104CC8000098FDF719F80720FCF7A4FFE0690E49E2
:104CD8000840FF300930E061F8BD00004A0AFF1FB4
:104CE80040F00040604EFF1F720600000180063D44
:104CF8000000034034080000710200001410004056
:104D0800FFFF3F003075000000FEFEFF00000000BE
:104D18003B00010802000300050006000700080028
:104D280009000A000C000D006927FF1F010001029D
:104D38000307090A0B0E0F101112141718191A1B62
:104D48001F202122000201000504000807000B0AA9
:104D5800001716001D1C010201010504010E0D01BA
:104D68001110011413011716011A19020201020B7E
:104D78000A020E0D0211100214130217160305047D
:104D8800030807030B0A030E0D000D000E001000A8
:104D9800110013001401070108010A010B011C018D
:104DA8001D02040205020702080219021A021C0267
:104DB8001D030103020317005048592B3632585877
:104DC800504C555330353034000000000004FF1FAC
:104DD800944EFF1F0C000000382AFF1F944EFF1F3F
:104DE8000004FF1F000400008C18FF1F944EFF1FD3
:104DF800944EFF1F1C0C0000482AFF1F00000000F3
:104E0800000000000000000000000000000000009A
:104E18000000000000000000000000000200000088
:104E2800882108005902E00100000000000000008D
:104E38000000000000000000000000000400000066
:104E48003B0001080000000000000000000008000E
:104E58000000000040787D01000000000000000014
:104E68000000000000000000000000000100000039
:104E78000000000000000000C04DFF1F00000000FF
:0C4E88000000000000000000000000001E
:040000051FFF184180
:00000001FF
