:020000041FFFDC
:1000000000000000712DFF1F8834FF1F8C34FF1F7C
:100010004C35FF1F00000000000000000000000041
:1000200000000000000000000000000000000000D0
:1000300000000000000000000000000000000000C0
:1000400000000000000000000000000000000000B0
:1000500000000000000000000000000000000000A0
:100060000000000000000000000000000000000090
:100070000000000000000000000000000000000080
:100080000000000000000000000000000000000070
:100090000000000000000000000000000000000060
:1000A0000000000000000000000000000000000050
:1000B0000000000000000000000000000000000040
:1000C0000000000000000000000000000000000030
:1000D0000000000000000000000000000000000020
:1000E0000000000000000000000000000000000010
:1000F0000000000000000000000000000000000000
:1001000000000000000000000000000000000000EF
:1001100000000000000000000000000000000000DF
:1001200000000000000000000000000000000000CF
:1001300000000000000000000000000000000000BF
:1001400000000000000000000000000000000000AF
:10015000000000000000000000000000000000009F
:10016000000000000000000000000000000000008F
:10017000000000000000000000000000000000007F
:10018000000000000000000000000000000000006F
:10019000F52AFF1F252BFF1FBD33FF1F00000000A6
:1001A000000000000000000000000000000000004F
:1001B000000000000000000000000000000000003F
:1001C000000000000000000000000000000000002F
:1001D000000000000000000000000000000000001F
:1001E000000000000000000000000000000000000F
:1001F00000000000000000000000000000000000FF
:1002000000000000000000000000000000000000EE
:1002100000000000000000000000000000000000DE
:1002200000000000000000000000000000000000CE
:1002300000000000000000000000000000000000BE
:1002400000000000000000000000000000000000AE
:10025000000000000000000000000000000000009E
:10026000000000000000000000000000000000008E
:10027000000000000000000000000000000000007E
:10028000000000000000000000000000000000006E
:10029000000000000000000000000000000000005E
:1002A000000000000000000000000000000000004E
:1002B000000000000000000000000000000000003E
:1002C000000000000000000000000000000000002E
:1002D000000000000000000000000000000000001E
:1002E000000000000000000000000000000000000E
:1002F00000000000000000000000000000000000FE
:1003000000000000000000000000000000000000ED
:1003100000000000000000000000000000000000DD
:1003200000000000000000000000000000000000CD
:1003300000000000000000000000000000000000BD
:1003400000000000000000000000000000000000AD
:10035000000000000000000000000000000000009D
:10036000000000000000000000000000000000008D
:10037000A12CFF1F00000000000000000000000092
:10038000000000000000000000000000000000006D
:10039000000000000000000000000000000000005D
:1003A000000000000000000000000000000000004D
:1003B000000000000000000000000000000000003D
:1003C000000000000000000000000000000000002D
:1003D000000000000000000000000000000000001D
:1003E000000000000000000000000000000000000D
:1003F00000000000000000000000000000000000FD
:0C04000001FF01FF01FF01FF910000005F
:020000041FFFDC
:10183800A041FF1F5518FF1F0348854600F010F808
:1018480000480047212DFF1FA041FF1F0248804785
:1018580002480047FEE700008121FF1F4118FF1FD3
:10186800064C0125064E05E0E36807CC2B430C3CEB
:1018780098471034B442F7D3FFF7E2FF1835FF1F3B
:101888004835FF1F30B58C180278401C13071B0F12
:1018980001D10378401C120906D10278401C03E0EC
:1018A80005780D70401C491C5B1EF9D101E00B70D6
:1018B800491C521EFBD1A142E6D3002030BD0000D6
:1018C80003B40148019001BDD94F010003B4014898
:1018D800019001BD75A9000003B40148019001BD44
:1018E800F9A6000003B40148019001BDA1AF0000B2
:1018F80003B40148019001BD9DA9000003B401484B
:10190800019001BDADAE000003B40148019001BDD6
:10191800456B010003B40148019001BD8B520100E1
:1019280003B40148019001BDC95C010003B401483A
:10193800019001BDBD0B010003B40148019001BD38
:10194800DD0C010003B40148019001BDDD0A01006E
:1019580003B40148019001BD6D0E010003B40148B4
:10196800019001BDE90E010003B40148019001BDD9
:101978000D52010003B40148019001BD496D0100F9
:1019880003B40148019001BD3D71010003B4014851
:10199800019001BD0189000003B40148019001BD17
:1019A800ED4A010003B40148019001BDA54F0100B3
:1019B80003B40148019001BD8552010003B40148F8
:1019C800019001BDB30E000003B40148019001BDB0
:1019D800810E000003B40148019001BD21A9000057
:1019E80003B40148019001BDB54C010003B401489E
:1019F800019001BDC56D010003B40148019001BD0E
:101A0800C9A9000003B40148019001BDEDA500007B
:101A180003B40148019001BD3D4B010003B40148E6
:101A2800019001BD154D010003B40148019001BDAD
:101A38002D11010003B40148019001BDF90D010009
:101A480003B40148019001BDA111010003B401488C
:101A5800019001BD7912010003B40148019001BD54
:101A6800A512010003B40148019001BDDD13010076
:101A780003B40148019001BDB912010003B4014843
:101A8800019001BDC913010003B40148019001BDD3
:101A98000514010003B40148019001BD9112010031
:101AA80003B40148019001BDF113010003B40148DA
:101AB800019001BDE910010003B40148019001BD86
:101AC800B110010003B40148019001BDED6B0100A4
:101AD80003B40148019001BDC115010003B40148D8
:101AE800019001BDE94C010003B40148019001BD1A
:101AF8008914010010B50E497620C860FFF7E0FE92
:101B080010BD0446FFF7E2FE0A49C8694022904327
:101B1800C8612046FFF7E0FE00F08AFF0548002173
:101B2800C0304160042101600120FFF7DBFEFEE7C1
:101B38000020004000F0004010B5FFF7C7FE0A483B
:101B48000468094A41178032116008490160FFF7AB
:101B5800CFFE204610BD10B50446FFF7B7FE024879
:101B68000460FFF7C5FE10BD00E100E010001000A2
:101B7800F8B57949774A002006460A608300401C78
:101B8800D650FF28FADD0868744A014680318A6019
:101B98006E22C262724A1278002A01D07F22C26283
:101BA8000A2202656F4A137883636F4BC361147806
:101BB8001023022C08D01478012C05D01478032C9B
:101BC80002D01478042C00D10362684C44611924B3
:101BD800A40184613724CC6036272825C7630824EC
:101BE800456404644F6032270F603B27CF63412769
:101BF800CF640E4639274036B0C632270F65022714
:101C08000F6642270836B0C61E274F66CD668C661B
:101C180005254D6742250D675A250D614C613C2409
:101C28008C61AF24E4000460514C04631478022CE6
:101C380009D01478012C08D01478032C07D0147814
:101C4800042C06D007E0152404E0436003E00E24CA
:101C580000E00C244460FF242D348460C460FF2419
:101C6800F5340461434C84647D24E400424FCC671E
:101C7800C7644462414C84627324C4650624446585
:101C88004B258465ED00C41D0827F9342760022719
:101C9800476685660927C766394F076708270026FC
:101CA80047678667374EC6671778022F09D01778B7
:101CB800012F0AD01778032F0BD01278042A0CD0E2
:101CC8000EE01A22CA61212205E01422CA611822F4
:101CD80001E01322CB610A6202E00E220B62CA61A4
:101CE800244A8A627D22D2008A6764224A620522D7
:101CF800CA6202220A63C8224A6300228A63382120
:101D08006160214921642149E561A1611A49FF30D7
:101D1800643921627D2109016162E26622671E2120
:101D2800A1661749A165266666646667E165184974
:101D3800A1671849184A8130E167026082604160F2
:101D4800FF21F531C1600161FFF7D8FD0120FFF7E0
:101D5800DBFDF8BD0004FF1FA035FF1FA041FF1FDA
:101D68004835FF1F4A0AFF1F3A07000080C3C90110
:101D78009A02000050C30000280A00006A180000F8
:101D8800204E000088130000004000116810000079
:101D9800DC05000040420F0010270000FEB5404F50
:101DA8004149B8703F480861062201A93F4800F040
:101DB800C3FA384611210C304171222101713321B7
:101DC800C170442181705521417066210170002045
:101DD800374A01461154401CC0B2FF28FAD335488F
:101DE8000224047001254570062282701B22C270ED
:101DF800FF2606710422427105228271C5710472A0
:101E080003224272CC238372C1720273AA234373E2
:101E180081739321C173037467214174F72181741D
:101E2800DB21C17434210175C421417582758E216D
:101E3800C1755C2101760B21417683769721C176A5
:101E48003021017756214177E62181771AA0006871
:101E5800009013481F23174A69460C3001F0DCF83C
:101E6800144816492C3006704160C8218160FF2152
:101E7800F53101821249C18104730C38057025219E
:101E88004170C4700F494160532181700E498160CF
:101E98007D22D2000121B878FFF73CFDFEBD00008D
:101EA8005035FF1F7520FF1F8003FF1F00400011E2
:101EB800B83AFF1FB83BFF1F002500008813000039
:101EC8001027000055555500D6BE898EF8B5324EFC
:101ED800324835460C46CA070C35297880780227DF
:101EE800002A13D0FF2905D014220121FFF712FD83
:101EF80001204DE0002028702F735320B07001F0AE
:101F08001FF82648012180786A68EFE7A20717D5ED
:101F1800FF2906D014220221FFF7FCFC2046784056
:101F2800F8BD012028702F73FFF7FAFC6861532071
:101F3800B07000F0DFFF194802218078AA68EBE74B
:101F4800A00603D501F042F8202021E0600716D54D
:101F5800287B022804D01A2806D050280BD00CE081
:101F68001A202873332002E0502028737320B070A1
:101F780000F0E6FF01E0FF202870042008E02007B9
:101F880003D501F061F8082002E0E00602D5102030
:101F98006040F8BD0020F8BDD83BFF1F5035FF1F3B
:101FA8008307FF22DB0E9A408907090E9940002813
:101FB8000BDA0007000F0838830808489B00181838
:101FC800C36993430B43C3617047830804489B006C
:101FD8001B181868904308431860704700ED00E02C
:101FE80000E400E08307FF22DB0E9A408907090E10
:101FF800994000280BDA0007000F083883080848C2
:102008009B001818C36993430B43C3617047830847
:1020180004489B001B1818689043084318607047D1
:1020280000ED00E000E400E08307FF22DB0E9A40A9
:102038008907090E994000280BDA0007000F0838B5
:10204800830808489B001818C36993430B43C3616E
:102058007047830804489B001B181868904308437E
:102068001860704700ED00E000E400E0F0B585B0CE
:10207800FFF756FC3C4DA860FFF758FC0446C00724
:1020880011D03A4900200860FFF720FCFFF754FC04
:10209800374900280BD00F460C3F2E4601280BD09D
:1020A800022831D051E0FFF74DFC05B0F0BD0878AB
:1020B80000284AD1042145E00878012845D12A4A58
:1020C800111DC81E01F04AF9F878002813D06005E0
:1020D8000FD502AB01AA03A92648FFF739FC224B0A
:1020E80000961B1DDA1E0299019801F04FF900F0C5
:1020F8005BFF082126E06007FBD402AB01AA03A915
:102108001C48FFF72BFCEAE7087802281DD1164A7D
:10211800111DC81E01F022F9F87800281AD06005B0
:102128000FD502AB01AA03A91248FFF711FC0E4B09
:1021380000961B1DDA1E0299019801F027F900F09C
:1021480033FF1021A878FFF70FFCFFF7FBFBFFF721
:10215800CFFBAAE76007F4D402AB01AA03A905489C
:10216800FFF7FCFBE3E700005035FF1F9809FF1F4E
:10217800E43BFF1FB839FF1F024901480860704758
:1021880040787D01A435FF1F02E008C8121F08C16E
:10219800002AFAD170477047002001E001C1121FE0
:1021A800002AFBD17047000002480068002800D0D0
:1021B8008047FEE79C35FF1F10B500F043F8014843
:1021C800804710BDE1A20000F0B585B00546029138
:1021D800002927D0154F0024144E803F0023009477
:1021E8000222194605200194FFF7C4FB30698007D5
:1021F800FCD420200090411E009101D30846FAE744
:1022080038680028FCDA012103A8FFF7B9FB684603
:10221800007B284007D00520FFF7B8FB0298401E36
:102228000290DBD1112005B0F0BD000080C800404D
:1022380010B5FFF7B1FB0120FFF7B4FBFFF7B8FBC0
:10224800002010BD03490020486103490860486028
:102258007047000040F0004040F1004010B50448CD
:10226800C16B034A40321068D06000F043FB10BDD8
:10227800008000400648006AC00708D004481030B3
:10228800C06804480168002901D005200847704744
:10229800401000406435FF1F0648406BC00708D057
:1022A80004482430C06804480168002901D0062089
:1022B80008477047401000406435FF1F38B5FFF7E6
:1022C80005FB01229207936A08240094002B01D190
:1022D800012090620A480221016000994D1E009574
:1022E800FBD2032101600094641E0094FCD20021FB
:1022F8000160002B00D19162FFF7FAFA38BD0000A7
:1023080000C00040012292070121202804D29368CE
:1023180081400B4393607047402805D253692038A9
:1023280081400B43536170476028FCD2136A4038E0
:1023380081400B4313627047F7B582B00446FFF73C
:10234800FBFB009060031121400B090647188D0123
:10235800AE6A22488168E812814209D91F20C00468
:10236800044005D01E4844620168AA131143016065
:10237800002E09D1FFF7AAFA1A49022008606862FC
:102388000120A862FFF7B4FA002003E03A5C039941
:102398000A54401C04998842F8D30027002E08D11B
:1023A800FFF794FA0F48076003206862AF62FFF7EF
:1023B8009FFA0A4881680120C004814208D9002C8C
:1023C80006D0074847620268012109048A4302606F
:1023D8000098FFF7C0FB002005B0F0BD9035FF1F47
:1023E80000C8004000C00040F0B52C4C89B02078EF
:1023F800012818D0FFF7A0FB294D0790286980070E
:10240800FCD4202700970098411E0091FBD2244E4F
:10241800803E30680028FCDA22490120FFF7D4FE0C
:10242800002821D102E0002009B0F0BD0020009072
:1024380003460146019003229F20FFF79BFA0321E0
:1024480002A8FFF79DFA28698007FCD40097009836
:10245800411E0091FBD230680028FCDA11490120A6
:10246800FFF7B2FE002801D01120DDE70798FFF73B
:1024780072FB02980C4A0002000A60606846817A82
:10248800012308461138052802D81846884001E07B
:102498000120C004A06090612370C4E79035FF1F3D
:1024A80080C80040FFFFFF078008FF1F30B5C21F2C
:1024B8000A2A01D3062030BD0124074D9440002983
:1024C80005D0002100F0A6F82868204301E028681C
:1024D800A0432860002030BD00380040054B012291
:1024E8008240D868002901D0104300E09043D860AA
:1024F800704700000038004010B5114C20780028C3
:1025080001D0072010BDFF212D310D48FFF756FAE5
:10251800012020700B490020086348630A490862BB
:10252800486202211020FFF75DFD012007490004E1
:102538000860074A07490D2000F0BAFA002010BDCC
:10254800FC3BFF1F0080004080F0004000E100E0FD
:102558006D27FF1FE126FF1F10B5172801D305209F
:1025680010BD0C4B9C6B012282401046204398639F
:10257800586B90435863DC6B012907D02046904381
:10258800D863186B02431A63002010BD104620431D
:10259800F6E7000000800040054B0122801E8240C3
:1025A8005869002901D0104300E0904358617047F2
:1025B8000038004070B5044614480E460519002935
:1025C80002D16878012808D000212046FFF786FF4D
:1025D800022C04D0032C02D005E0072070BD012195
:1025E8002046FFF7D9FF00212046FFF75FFF084983
:1025F8000120A0404A68012E05D082434A6002208B
:102608006870002070BD02434A60FAE7FC3BFF1F78
:102618000080004070B5420083180D4A9C18A578C8
:102628006478D65C641B0122641CA240521EAA4036
:10263800084BA940132806D2B000C01883689343FA
:102648000B43836070BD586990430843586170BD5F
:10265800A434FF1F00F0004007494A680123834063
:102668001A4201D0096802E0034940310969C140B2
:10267800C807C00F704700000080004070B5154CB7
:1026880045002E1976780123114AB34000290ED04F
:10269800142809D0152807D0162805D060578000BF
:1026A8008018816819430DE0506918430EE014281A
:1026B8000AD0152808D0162806D060578000801840
:1026C80081689943816070BD50699843506170BDBD
:1026D80000F00040E934FF1F70B5104D00242E199A
:1026E8007078012803D1E0B20121FFF7C7FF7078A5
:1026F80002280ED1E0B2FFF7AFFF01214140E0B25E
:1027080000F078F8E0B2FFF7A7FF0C216143491900
:102718004876641C172CE2DB70BD0000FC3BFF1FF1
:1027280010B50F4C0D4A0123245C142809D2106AF5
:10273800002902D0A340184301E0A3409843106247
:1027480010BD506A002903D0203CA340184302E082
:10275800203CA3409843506210BD000080F0004028
:102768008D34FF1F70B502211020FFF73BFC0120BC
:102778001E490004086000241D4D07E0022C01D00A
:10278800032C03D1E0B20121FFF706FF2819407896
:1027980001280BD1E0B2FFF75FFFE2B20146104615
:1027A80000F064F8E0B20021FFF768FF0C206043F6
:1027B8004019007E002814D0E0B200F069F8E6B2B3
:1027C8003046FFF749FF002801D0012100E0002131
:1027D8000C2272435219527E824202D0304600F0D7
:1027E800BDF8641C172CC9DB70BD000000E100E0D7
:1027F800FC3BFF1FF8B542008318184AD55C9A18AD
:102808009278521ED4B2164A12185278022A21D14E
:10281800144EB76B0122134683401F43B763124B14
:1028280013280ED2002906D0A900C9188B68A24027
:1028380093438B600BE0A900C9188B68A24013432F
:10284800F7E70029596906D0A2409143596101214F
:10285800FFF766FFF8BDA2401143F7E7A434FF1F56
:10286800FC3BFF1F0080004000F00040012200B543
:10287800064B82400029196801D0114300E09143BA
:1028880019600121FFF796FE00BD0000008000409E
:1028980070B50446164821460C2251430D186A6843
:1028A8000026002A02D1AA68002A1CD0104B022256
:1028B800183B1B195A700122425400212046FFF789
:1028C80079FE6868002808D0A86800280DD020463E
:1028D800FFF7C2FE002808D0002631462046FFF741
:1028E8003BFE002070BD122070BD0126F5E70000F8
:1028F800143CFF1FF3B5184E002481B0074601258C
:102908002846A040384223D00299084000D0012030
:102918000090E0B2009900F021F80C206043801983
:102928004168806800290ED0002807D00098002848
:1029380002D00021E0B203E00121FBE7E0B201216F
:10294800FFF70AFE04E0002802D0E0B20021F7E712
:10295800641C172CD4DBFEBD143CFF1F074A0C2354
:1029680043439B185A68002A01D0012904D09A6869
:10297800002A02D0002900D110477047143CFF1FDD
:1029880030B585B0142217496846FFF71DF80024B2
:102998006D46600041194978285CFFF73BFE641CCE
:1029A800E4B20A2CF5D310484169C20091430522CC
:1029B800120489184161416901225206114341619B
:1029C8004169032252059143012252058918416148
:1029D800012000F021F800F035F800F007F805B004
:1029E80030BD00007434FF1F00F0004008B5042219
:1029F80069460748FFF7A0FC0098401C05D1054828
:102A080041690122920611434161002008BD00007E
:102A18001C18001100F000400449420903D00020AE
:102A2800C86006207047C860002070476835FF1FDF
:102A38000348C1691F2252049143C16100207047B5
:102A480000F000400548C1691F2252049143044A1E
:102A5800928952041143C1610020704700F0004080
:102A68006835FF1F10B578210C48FEF7A7FF0C4802
:102A78000078012803D0022804D0042804D1FEF7E6
:102A8800A9FF01E0FEF73AFF06480078C00702D028
:102A9800064905480863002010BD0000283DFF1FB7
:102AA8006835FF1F00200040FD1AFF1FC000FF1FF0
:102AB80030B50D4C00230C255D43655D854201D181
:102AC800072030BD002D04D05B1C0A2BF3DB03204C
:102AD80030BD0C256B431B19F9D000245C701870AD
:102AE8009A602046596030BD283DFF1F70B5FFF73A
:102AF800A9FF094D002420460C214843295C0029E0
:102B080007D040194068002800D08047641C0A2C70
:102B1800F1DB002070BD0000283DFF1F70B519488B
:102B28000121890742688A60826801231A434A6141
:102B380015490A6B0261496B416100210420FFF7C6
:102B480073FA01211420FFF76FFA01211520FFF70E
:102B58006BFA01211720FFF767FA0C4D0024204675
:102B68000C214843295C002909D0401980680028B5
:102B780000D08047641C0A2CF1DB002070BD1220B5
:102B880070BD00006835FF1F80F00040283DFF1F22
:102B980010B516490A200870154901200870154912
:102BA800002008701448C16B490949010931C16303
:102BB800C16B602291432031C16300F021F80021EC
:102BC8000420FFF7EDF901211420FFF7E9F90121AD
:102BD8001520FFF7E5F901211720FFF7E1F9012199
:102BE80089020648FEF7FCFE10BD0000480AFF1FD8
:102BF800490AFF1F680AFF1F80F00040B835FF1F11
:102C080010B5FFF7D9FA10BD70B5174C402501284B
:102C180019D0002816D100210A20FFF7FBFC00215B
:102C28000B20FFF7F7FCE069032109020843E06184
:102C3800E069A843E06160690B2140014009090788
:102C48004018606170BD6069052140014009C906EE
:102C580040186061E0690549084005494018E0618D
:102C6800E0692843E06170BD00F000407F00FEFF8E
:102C780080FD010010B5064AD160906000F012F89E
:102C8800044A00211320FFF713FF002010BD0000A5
:102C98008035FF1FAD2CFF1F08B500200090684647
:102CA800FFF782FAF8B500251648009542680078C3
:102CB8002B460121FEF79AFE144913488863012028
:102CC80013498004086013480168FF221204022691
:102CD8009143B20511430160642000904120FFF741
:102CE80011FB4020FFF70EFB740766620098411E37
:102CF8000091FBD203206062FFF7E0FAA562FFF7BC
:102D080073FBF8BD8835FF1F050001FF00C80040B0
:102D180080E100E010E400E070B5104C0220207063
:102D28000F4D01202870FEF767FEFEF721FFFFF721
:102D38002FFFFFF725FE2078FEF764FE2878FFF7BF
:102D480063FFFFF78FFE074903C9FFF793FFFFF7FC
:102D5800D3FBFFF76DFA002070BD00004A0AFF1F81
:102D68004835FF1F6C34FF1F10B500240220FEF702
:102D78004FFE0549022208600021FEF74FFE20465B
:102D8800FFF70CF810BD00004C35FF1F30B51A488E
:102D9800184941610121C16001601849486BC0B2FE
:102DA800022801D2022002E0502800D95020144AFB
:102DB8001278022A11D0134A1478134B1D78AC42AA
:102DC80015D914781B78E31A801E401043431078F5
:102DD8004001C01A1030401103E00C4A14780C4B23
:102DE800ECE74A69120A12021043486130BD1078B4
:102DF800F7E70000FF3F0000001003408000034099
:102E0800D83BFF1F440AFF1F450AFF1F460AFF1F42
:102E1800470AFF1F37B56846007800F0CDF96846C5
:102E2800C078104C002816D00146FEF7FDFDA068BA
:102E38000199000E00060843A0600220FEF7FAFD83
:102E4800A068694600028978000A09060843A0605C
:102E58000298E0603EBD68464078FEF7F1FD00202C
:102E6800ECE700004000034010B5FEF7EFFDFEF769
:102E7800F3FD3C2208215A20FEF7F4FD10BD10B5E1
:102E8800FEF7F6FD3C2208215A20FEF7EBFD10BDA7
:102E980010B5FEF7DBFDFEF7F1FD3C2208215A20B4
:102EA800FEF7E0FD10BD000070B500242120FEF7FC
:102EB800CDFD064D06E00320FEF768FD641CE4B274
:102EC8000A2C02D828680028F5D170BD9809FF1F80
:102ED80010B501210A20FEF7D7FD3C20FEF7DAFDE8
:102EE8004220FEF7DDFD342208213920FEF7BAFD25
:102EF80010BD000010B5FFF7D7FFFEF7E7FC0E483E
:102F080007C8FFF787FFFFF7E3FF0B4C0C34207B64
:102F180000F05EF8E089FFF7A7FFFEF7C7FDFEF7B0
:102F2800CBFDFF20FEF7CEFDFFF730FF0349012060
:102F38000860FEF7DDFC10BDD83BFF1F9809FF1F96
:102F480010B5FFF7B1FFFEF7C1FC144807C8FFF73B
:102F580061FFFFF7BDFF114C0C34207B00F038F8FF
:102F68002078022815D0FFF78AFFFEF79FFDFEF7AD
:102F7800A3FDFF20FEF7A6FD09484178891CFEF74E
:102F8800A7FDFFF703FF074901200860FEF7B0FC23
:102F980010BD208AFFF77CFFE7E70000D83BFF1F42
:102FA800B83AFF1F9809FF1F10B506480078032894
:102FB80006D0054820218078FEF7D6FC002010BDF9
:102FC800012010BDE43BFF1F5035FF1F7047000074
:102FD80010B50D490023CB560C4A002B0C4BCB5691
:102FE80006DB1B0400240C5721025918081808E0B6
:102FF800FF331B0400240C572102591808180549EF
:103008004018506310BD0000680AFF1F800003408D
:1030180000000000FFFE000070B5164604461D467D
:1030280002220848FEF75AFD064806222146801C5F
:10303800FEF754FD03482A4631460830FEF74EFD98
:1030480070BD0000B83AFF1F10B5FEF769FC1249C1
:103058004A69824201D8821A02E0104B9A1A121861
:10306800CB899A4202D2FFF745FF10BD48610A4A50
:10307800087B0C3A022806D01A2808D05028F4D128
:10308800FF20087010BD1A200873332002E050207A
:10309800087373209070E6E7E43BFF1FFFFF3F00D3
:1030A80030B5384801680122920411430160416833
:1030B800032212069143344A13781B0619434160D0
:1030C8004368032189058B4330490C78A4052343C1
:1030D800436043686024234343601378022B08D07D
:1030E8001378012B05D00B78022B02D00B78012B1B
:1030F80004D14368FF240134234343601278032A30
:1031080002D00A78032A03D1426880231A43426016
:10311800426803239B041A4342600B780122D205BC
:103128001B48002B03D11B4B1B78032B19D0C368FA
:103138009343C360164A184B4032D360FF2581354C
:103148001561164C5461164B9361114B80335D60C9
:103158009C60144CDC60144B03600978002903D090
:1031680006E0C3681343E4E70168012319430160DB
:103178000E4909780E4BC906C90BC91881630D4859
:10318800D06130BD40F000404C0AFF1F4B0AFF1FC2
:10319800800003404A0AFF1FC00B00207A3E6A07DE
:1031A8000000890400808904CC240000480AFF1F1D
:1031B800250800002FFCA601F8B505004A484B4B2E
:1031C8004B4C4C4A4C4934D0022D32D086155710FE
:1031D800066286699E43B31883612078002833D03D
:1031E8000F61464808634648007801221203801898
:1031F8004861414E404C434B803E403C002D27D017
:103208006521414AC9024148012D2ED0022D31D0F5
:10321800032D5AD0042D58D03D49691831603D49D5
:10322800A1602360E06002210846FEF7FDFB3A48F2
:103238002BE08026066286699E430123DB04F6188C
:1032480086612078002801D00A61CAE70B61C8E7C7
:10325800324830600020A06023603148E0600321DC
:103268000846FEF7E1FB2F480FE02F4B3360A260C2
:103278002160D7E72C4B5B1C3360A2602160E060C3
:1032880002210846FEF7D0FB28482061F068FF219C
:103298000843F060264860612648A0612648E0613E
:1032A80026482062264860622648A0622648E062D6
:1032B8002648206326486063E020012D0DD0216850
:1032C800022D0ED081432160F8BD224BEB183360EC
:1032D800214B73602160A260A4E7216881432031FB
:1032E800F1E781434031EEE7C000034000001C00D5
:1032F8004B0AFF1F00000400800003400300000188
:10330800440AFF1F00280B0055555537D6BE898E35
:1033180000800642555555008055082200800678E1
:1033280007EE7536806608220180063D8045082232
:10333800A49C5C544C44434241524C46403A342E7F
:1033480028007F554F49433D37312B4C46403A348E
:103358002E28221C00800698545A985070B50A4BA3
:103368005C6A9D6AA30501269B0D7602B34201D9CA
:103378009B1B02E0FF33FF3302330B80290E0170E1
:10338800200E107070BD0000C000034070B58405A9
:103398000126A40D7602049DB44201D9A41B02E0C3
:1033A800FF34FF340234090E1C801170000E28709F
:1033B80070BD000010B50A490020087009490220B4
:1033C8000870FFF76DFE0848007800F011F8074C08
:1033D8002078FFF7F1FE2078FEF786FB10BD00008D
:1033E8004B0AFF1F4C0AFF1F480AFF1F490AFF1F0D
:1033F800F0B51A4A03230725D60019499B02602411
:10340800ED0157693F281AD0B74305263604BE197F
:103418005661CA689A43CB14D218CA60CA69A243D3
:103428002032CA61CA69AA43CA610D4940398A6B08
:10343800C0061205120DC00B02438A63F0BDB743E4
:103448000126B604BE195661CA689A43CA60CA6999
:10345800A243CA61CA69AA438032E5E700F0004086
:10346800C0000340000000003B0001080200030008
:10347800050006000700080009000A000C000D00FE
:10348800D51EFF1F010001020307090A0B0E0F10CA
:103498001112141718191A1B1F20212200020100EB
:1034A8000504000807000B0A001716001D1C01027E
:1034B80001010504010E0D01111001141301171665
:1034C800011A19020201020B0A020E0D0211100262
:1034D8001413021716030504030807030B0A030E47
:1034E8000D000D000E00100011001300140107015B
:1034F80008010A010B011C011D0204020502070252
:10350800080219021A021C021D0301030203170014
:103518000004FF1FB835FF1F0C0000009021FF1F9B
:10352800B835FF1F0004FF1F000400008C18FF1FA0
:10353800B835FF1FB835FF1FE80B0000A021FF1F9B
:103548000000000000000000000000000000000073
:103558000000000000000000000000000000000063
:1035680002000000882108005902E0010000000064
:103578000000000000000000000000000000000043
:10358800040000003B0001080000000000000000EB
:1035980000000800000000000000000040787D01E5
:1035A8000000000000000000000000000000000013
:040000051FFF184180
:00000001FF
